S00E0000752D626F6F742E73726563C0
S31517800000B80000EA14F09FE514F09FE514F09FE519
S3151780001014F09FE514F09FE514F09FE514F09FE523
S3151780002060008017C0008017200180178001801715
S31517800030E001801740028017A0028017EFBEADDE61
S31517800040DEC0AD0B00F020E300F020E300F020E3E4
S3151780005000F020E300F020E300F020E300F020E337
S3151780006028D01FE500E08DE500E04FE104E08DE53F
S3151780007013D0A0E30DF069E10FE0A0E10EF0B0E137
S3151780008048D04DE2FF1F8DE850201FE50C0092E8FF
S3151780009048008DE234508DE20E10A0E10F0085E8FE
S315178000A00D00A0E1A90700FA00F020E300F020E395
S315178000B000F020E300F020E300F020E300F020E3D7
S315178000C088D01FE500E08DE500E04FE104E08DE57F
S315178000D013D0A0E30DF069E10FE0A0E10EF0B0E1D7
S315178000E048D04DE2FF1F8DE8B0201FE50C0092E83F
S315178000F048008DE234508DE20E10A0E10F0085E89E
S315178001000D00A0E1970700FA00F020E300F020E346
S3151780011000F020E300F020E300F020E300F020E376
S31517800120E8D01FE500E08DE500E04FE104E08DE5BE
S3151780013013D0A0E30DF069E10FE0A0E10EF0B0E176
S3151780014048D04DE2FF1F8DE810211FE50C0092E87D
S3151780015048008DE234508DE20E10A0E10F0085E83D
S315178001600D00A0E1850700FA00F020E300F020E3F8
S3151780017000F020E300F020E300F020E300F020E316
S3151780018048D11FE500E08DE500E04FE104E08DE5FD
S3151780019013D0A0E30DF069E10FE0A0E10EF0B0E116
S315178001A048D04DE2FF1F8DE870211FE50C0092E8BD
S315178001B048008DE234508DE20E10A0E10F0085E8DD
S315178001C00D00A0E1730700FA00F020E300F020E3AA
S315178001D000F020E300F020E300F020E300F020E3B6
S315178001E0A8D11FE500E08DE500E04FE104E08DE53D
S315178001F013D0A0E30DF069E10FE0A0E10EF0B0E1B6
S3151780020048D04DE2FF1F8DE8D0211FE50C0092E8FC
S3151780021048008DE234508DE20E10A0E10F0085E87C
S315178002200D00A0E1610700FA00F020E300F020E35B
S3151780023000F020E300F020E300F020E300F020E355
S3151780024008D21FE500E08DE500E04FE104E08DE57B
S3151780025013D0A0E30DF069E10FE0A0E10EF0B0E155
S3151780026048D04DE2FF1F8DE830221FE50C0092E83B
S3151780027048008DE234508DE20E10A0E10F0085E81C
S315178002800D00A0E1550700FA00F020E300F020E307
S3151780029000F020E300F020E300F020E300F020E3F5
S315178002A068D21FE500E08DE500E04FE104E08DE5BB
S315178002B013D0A0E30DF069E10FE0A0E10EF0B0E1F5
S315178002C048D04DE2FF1F8DE890221FE50C0092E87B
S315178002D048008DE234508DE20E10A0E10F0085E8BC
S315178002E00D00A0E1370700FA120000EA00000FE1BF
S315178002F01F1000E21A0031E31F00C013130080138A
S31517800300C00080E300F029E1100F11EE020AC0E366
S31517800310100F01EE84009FE5100F0CEE060000EB20
S315178003201D0000EBAA0500EB150F07EE9A0F07EED7
S31517800330950F07EE1EFF2FE1EBFFFFEA0000A0E304
S31517800340170F08EE150F07EED50F07EE9A0F07EE64
S31517800350950F07EE100F11EE020AC0E30700C0E3F0
S31517800360020080E3020B80E3010A80E3100F01EE9F
S31517800370300F1FEE400080E3300F0FEE0E50A0E1D6
S31517800380101F10EE213AA0E10F3003E20F4001E271
S315178003900322A0E1022084E105F0A0E1000000EA33
S315178003A00000801710D09FE507D0CDE30090A0E31B
S315178003B000502DE9420100FA0090BDE800FF930036
S315178003C02DE9F04530EE306F00210D464C0063184D
S315178003D026FA03F303F00703023B022B47D840EEB6
S315178003E0104F30EE107FC7F3C90307F0070E03F1DE
S315178003F0010A0EF1040EC7F34E374FF0FF3CD04675
S315178004005FEA58080CF1010201D09446F8E713EA1F
S315178004100A0F18BF0CF102020128C2F1200211D16E
S3151780042003FA02FABC464AEA040A0CFA0EF848EAB4
S315178004300A0807EE568F1CF1FF3CF6D213F1FF33ED
S31517800440EED212E0022812D103FA02FABC464AEA21
S31517800450040A0CFA0EF848EA0A0807EE5E8F1CF1B2
S31517800460FF3CF6D213F1FF33EED207EE9A5F0131D6
S315178004700729ABD1BDE8F085002307EE153F07EEB8
S31517800480D53F07EE9A3F07EE953F704770470000B6
S31517800490174A10B5136823F00103136008324FF417
S315178004A099731360536002F658621168114841F0C8
S315178004B0E04343F00F03006800F47074C02C09D131
S315178004C000F03F0007289EBF21F0804343F040533A
S315178004D043F00F031360084A136843F0030313604E
S315178004E0A2F56862136843F00103136010BD00BF5D
S315178004F00021A0000020A000802FA00070470000D8
S31517800500024A136823F00103136070470021A00085
S3151780051008B50220FFF754FFBDE8084001F034BC48
S3151780052008B50120FFF74CFFBDE8084001F026BC4F
S3151780053008B5FFF7ADFFFFF7F3FF002308EE173F68
S3151780054008EE163F08EE153F07EE9A3F07EE953FE2
S3151780055008BD30EE103F012203F0070304339A409B
S3151780056053420340994203D907EE3E3F1344F9E7B6
S31517800570002307EE9A3F01F00DBC08B5FFF7E9FF98
S31517800580002308EE173F08EE163F08EE153F07EED5
S315178005909A3F07EE953F08BD0144FFF7DABF000083
S315178005A02DE9F04106460F4630EE105F05F0070538
S315178005B02B1D01259D4005F1FF3810EA080F09D03C
S315178005C00246741E114912480DF0D4F963196C420C
S315178005D01C4000E0044617EA080F07D03A460B4935
S315178005E00C480DF0C7F96B423B4000E03B469C42F6
S315178005F003D207EE364F2C44F9E7002307EE9A3FCE
S3151780060039463046BDE8F04101F0D4BB7366821790
S315178006104D71821780718217704708B501F00BFCF0
S3151780062001F06CFDFFF728FF01F0A0FDFFF768FFCB
S31517800630FFF776FFFFF7F0FF002008BD4FF4200382
S31517800640586800F003007047114AD2F88032C3F316
S315178006500740602813D0D2F860324FF420025268D0
S31517800660C3F3074002F00302612803D1002A08BFAB
S31517800670662004E0632802D1012A08BF6720C3F3E6
S315178006800722DBB2013203EB021343EA00307047CD
S3151780069000800C0208B5FFF7D7FFC0F30733662B28
S315178006A004D1C0F30B0040F4C22008BD672B04BFEA
S315178006B0C0F30B0040F4C62008BD000009494FF06F
S315178006C077330B604B60084A1360536000230B64C3
S315178006D04B648B64CB640B65136453649364D364E4
S315178006E01365704700C0070200C0170238B511EEB0
S315178006F0103F23F0020301EE103F3C4C2368D803CA
S3151780070005D523F480330020236015F0C9FFFFF742
S31517800710D5FF374A536823F44033536002F5804236
S31517800720D2F850311906FBD5324B08220020C3F870
S31517800730542100F0A9FA304B98420DD12C4D00F078
S31517800740EBF96B692D4A23F4E053A0FB02010A0DDE
S31517800750013A43EA82236B61294A002313814FF0BA
S3151780076003721381236843F480232360FFF76CFF9A
S31517800770C0F30730632805D1FFF766FFC0B220287C
S3151780078018D505E0FFF760FFC0F307306728F3D069
S315178007901C4A136843F0010313601B4B1A6842F017
S315178007A001021A601A68D207FCD4124B4FF478529A
S315178007B0C3F84821154A136823F001031360FFF71E
S315178007C043FFC0F30730632808D1FFF73DFFC0B258
S315178007D0202809D40E4A0F4B1A6005E0FFF734FF1D
S315178007E0C0F307306728F0D0002038BD04000E020A
S315178007F000400C0200800C02007B9A17239A08028D
S3151780080000C00B0260C20D0200C00D0200800D02EF
S31517800810010200800806BB000E4A08B5D2F840319F
S31517800820D2F8701121F07C51C3F38440C2F870114D
S31517800830C0F113000028B8BF404248B123F4F8032B
S3151780084043F49803C2F8403100EB400020F0CCF90E
S31517800850002008BD00800C0208B5FFF761FE01F085
S3151780086056FC1E220649002001F00EFC1E224FF46C
S3151780087080214FF41000BDE8084001F005BC00BF89
S31517800880FFFF0F00074BD3F83026100A4A700870FF
S31517800890D3F820361A0E4B718A701A0CCA701A0A38
S315178008A00A71704700C01B02054B18645A6C10B149
S315178008B042F0805201E022F080525A64704700BF9E
S315178008C000800D0208B5FFF7BFFEC0F30730622818
S315178008D037D0FFF7B9FEC0F30730642831D0194BEC
S315178008E09A69C2F34153C2F38142022B09D0022A75
S315178008F00ED0012B15D0012A13D0032B124B04D1FE
S3151780090010E0012A1AD04FF08023032A06D109E076
S31517800910012B13D0032B11D04FF0802343F4000300
S3151780092000E0094B094A4FF08031C2F8F410C2F83B
S315178009300431C2F8F810C2F8083108BD4FF0802389
S31517800940F0E708BD00400C028080008000800C0212
S315178009507047000038B50C4D2C78E4B244F080030C
S3151780096040F6B8302B7020F03FF944F0C00340F6BC
S31517800970B8302B7020F038F944F0C8042C70034B2C
S3151780098000221A7038BD00BF0030120005401200D1
S31517800990054B10B51B685C6900F072FCC4F3012126
S315178009A0013123F04CEC10BDD01D831708B50B4BC6
S315178009B01A6844F21003D358516A03F00303084A9E
S315178009C001F03F015B00013114335343054AA3FB02
S315178009D00223980823F032EC08BD00BFD01D831779
S315178009E000366E01ABAAAAAA012837B50CD0022801
S315178009F029D1164B44F2F0021B689C5844F2100218
S31517800A009A5802F003020BE003291CD00F4B1B6880
S31517800A1003F58242146844F230029A5802F00102B2
S31517800A2052000B4B1432CD003F2102A8534312229A
S31517800A30A9402140E940A3FB022360E902231FF066
S31517800A4003FF009800E0002003B030BDD01D831748
S31517800A5000366E01144B10B51A68D369546A032889
S31517800A6019D8DFE800F002070C11C4F3C22403F487
S31517800A7080330DE0C4F3024403F4003308E0C4F373
S31517800A80C24403F4802303E0C4F3825403F400239F
S31517800A9013B1002101E0002402210120FFF7A4FFF2
S31517800AA0611C23F0CCEB10BDD01D8317054B1A683C
S31517800AB0136F10B143F4405301E023F44053136787
S31517800AC0704700BFD01D8317064B1A68D2F880303F
S31517800AD010B143F0030301E023F00303C2F880301B
S31517800AE0704700BFD01D831702290FD803234900EB
S31517800AF0063103FA01F1074B1A68136F08B11943C8
S31517800B0001E023EA01011167002070476FF0150095
S31517800B10704700BFD01D83171F4B10B51B685969C7
S31517800B2011F0007414D09A69C1F3C261C2F301320D
S31517800B3022B1022A194888BF002029E044F2100200
S31517800B409858164B00F003004000143058431FE0A6
S31517800B509869C0F3814002280FD0032812D0012844
S31517800B6009D044F2300298580C4B00F0010040002F
S31517800B70143058430BE0022101E001202146FFF78C
S31517800B8033FF04E002210120FFF72EFF400821469C
S31517800B90013123F054EB10BDD01D831700366E013B
S31517800BA00B4B10B51B685B695A06C3F3024408D50D
S31517800BB01B0647BF0221012001210220FFF714FFE0
S31517800BC001E0FFF7A9FF611C23F038EB10BD00BFCA
S31517800BD0D01D8317032910B52DD8184BD3F8E030BD
S31517800BE010B923F0030304E0890023F00F0301F003
S31517800BF00C011943CB0401D400290FDB21F4805152
S31517800C000E4B0F4AC3F8E010013A04D0D3F8E040F0
S31517800C10002CF9DA02E06FF06D0010BD10B941F4BF
S31517800C20005101E041F4801121F48031034B0020FB
S31517800C30C3F8E01010BD6FF0150010BD00800C02D0
S31517800C40A1860100FFF7B2BE024A136823F030036C
S31517800C50136070477C400C020A4B1A69002A0FDB17
S31517800C604FF480525A618022C3F87821054A196950
S31517800C700029FBDA4FF4803393614FF400535361A5
S31517800C80704700BF00800C0210B5014610287CD82B
S31517800C90DFE800F00918771C20282C3D41616C6E1F
S31517800CA07375777B20003B4B1B68196903F5804367
S31517800CB0186801F00701384B013100F07F0058435F
S31517800CC0400850E0BDE81040FFF726BFBDE810404A
S31517800CD0FFF75EBE2F4B1B68DC69FFF759FE04F0E2
S31517800CE03F013FE0BDE81040FFF760BE294B44F255
S31517800CF0100229481B68996B9B58C1F3C54103F0AD
S31517800D00030301315B00C900143358432BE0BDE858
S31517800D101040FFF745BF1F4B1B68D969C1F3C254F3
S31517800D20C1F34171022911D003290ED0012902D0AE
S31517800D30FFF736FF0DE044F2100217489B5803F071
S31517800D4003035B001433584303E000210120FFF7A8
S31517800D504BFE611C07E00F4B1B685C69FFF7DCFED7
S31517800D60C4F3C241013123F06AEA10BD002000E0C6
S31517800D700120BDE81040FFF76DBE0220F9E703207A
S31517800D80F7E7BDE8104000F07BBA04480CF0F2FD97
S31517800D90002010BDD01D831700366E010E72821784
S31517800DA00320FFF771BF000070B5544E544D554C54
S31517800DB0336803F58043186800F07F00684340085E
S31517800DC0A0FB04015048890C0CF0D4FD326844F21C
S31517800DD03003D05800F00100400014306843A0FB60
S31517800DE004014A48890C0CF0C5FD326844F2100399
S31517800DF0D05800F00300400014306843A0FB04016C
S31517800E004348890C0CF0B6FD326844F2E003D35898
S31517800E1003F00303581C00EB53003E4B5843A0FBCB
S31517800E2004013D483D4C890C0CF0A4FD3C480CF060
S31517800E30A1FD0320FFF728FFA0FB04013948890984
S31517800E400CF098FD0520FFF71FFFA0FB040136481D
S31517800E5089090CF08FFD0220FFF716FFA0FB04010E
S31517800E60324889090CF086FD0720FFF70DFFA0FB96
S31517800E7004012F4889090CF07DFD0920FFF704FF2F
S31517800E80A0FB04012B4889090CF074FD0A20FFF793
S31517800E90FBFEA0FB0401284889090CF06BFD0B208B
S31517800EA0FFF7F2FEA0FB0401244889090CF062FDC6
S31517800EB00C20FFF7E9FEA0FB0401214889090CF0F5
S31517800EC059FD0D20FFF7E0FEA0FB04011D48890997
S31517800ED00CF050FD0820FFF7D7FEA0FB04011A4837
S31517800EE089090CF047FD0420FFF7CEFEA0FB04010D
S31517800EF0164889090CF03EFD002070BDD01D83175A
S31517800F0000366E0183DE1B43277282173B72821768
S31517800F104F72821740787D0163728217D34D6210A4
S31517800F20677C8217777282178B7282179F728217E6
S31517800F30B3728217C7728217DB728217EF728217A4
S31517800F4003738217177382172B7382173F73821750
S31517800F50024A536F43F003035367704700400C02EE
S31517800F60044A054B116853F8203000200B43136051
S31517800F70704700BF00800D02A048821708B501464A
S31517800F80064B1A68064B53F8203006481A4214BF88
S31517800F90012200220CF0EEFC002008BD00800D0215
S31517800FA090488217627382171346002110B5102254
S31517800FB00446186820F010FA022C06D0032C07D0A6
S31517800FC0012C10D1094B986204E0084B186301E095
S31517800FD0064B9863054A0020054B116853F8243051
S31517800FE00B43136010BD012010BD00BF00800D029A
S31517800FF09048821710B50446FFF720FBA04234BFEE
S315178010000020012010BD0000044A054B53F820101C
S315178010100020136823EA01031360704700800D02CE
S3151780102090488217F0B500F07F4401F00F0501F460
S31517801030F873220EC0F30B0404F103741E0942EAF7
S3151780104005222B0E04F50034114D26600D4052EA09
S3151780105003044FEA552507D002F1037201F0F047D2
S3151780106002F50032FB0E1360AB030FD4094A002337
S31517801070194010400B0B020B42EA015252EA030148
S315178010801EBF02F1037202F500321560F0BD00BF74
S3151780109000FEFF0700F0FF0070B504460E46FFF707
S315178010A0D3FAC0F30730632806D0FFF7CDFAC0F31B
S315178010B00730672818BF08340025B54204F1100495
S315178010C005D054E904010135FFF7ACFFF5E770BD8C
S315178010D00E4B10B519689C690D48C1F30253C1F3BD
S315178010E002620C32C35C0B481A44C1F30143C1F345
S315178010F080711944C4F34013C35C13440B44202BEB
S315178011001ABF012098404FF0704010BD00001B0297
S31517801110106982170E698217513821289ABF024B98
S3151780112053F8200001487047E84682173CB082176B
S31517801130F0B585B0FFF788FA3E4F0446FFF784FA75
S3151780114004F47F2604F00F0504F0F004C0F307308B
S31517801150632815D1FFF778FAC0B2202816D4300B3A
S31517801160FFF7DAFF06460020FFF78EFD2209013AC0
S31517801170A0FB070130488B0C314600932B4614E0B1
S31517801180FFF762FAC0F307306728E3D0300BFFF713
S31517801190C3FF06460020FFF777FD2209A0FB07014C
S315178011A026488B0C314600932B460CF0E3FB02AA9C
S315178011B000210E2010F03AFC58B903A9029815F0B1
S315178011C007FB20B903991E480CF0D4FB04E01D4891
S315178011D000E01D480CF0CEFB1C4A93689360102BD9
S315178011E01B4A136017D005D8042B10D0082B10D0A4
S315178011F0012B03E0202B10D002D8112B11D112E02E
S31517801200402B0CD0B3F5803F0BD112490CE0124915
S315178012100AE0124908E0124906E0124904E0124929
S3151780122002E0124900E0124912480CF0A3FB002095
S3151780123005B0F0BD83DE1B43B3738217E073821745
S315178012400C748217257482174E74821700800D02CC
S31517801250D41D83179B7382177573821779738217B9
S31517801260827382178773821793738217A573821770
S31517801270717382177C74821718F05EB816F064B98A
S31517801280054B10B55C69FFF747FCC4F38221013122
S3151780129022F0D4EF10BD00BF00400C0208B508F04D
S315178012A0D3FDFFF7D1FCBDE8084012F04FBE10B54D
S315178012B00A204C46FFF7E8FCC4F8D000002010BD82
S315178012C0F7B5044690F8280015F084FB207C15F0B6
S315178012D081FBD4E90801FFF7A5FED4E90201FFF7E0
S315178012E0A1FE94F8280015F059FB0546207C15F0C9
S315178012F055FB05EA00020346012A01D1002574E051
S31517801300227C3F493F48019294F8282000922A462A
S315178013100CF030FB0121207C092515F071FB4FF469
S315178013207A701FF061FC0121207C15F069FB322051
S315178013301FF05AFC0021207C15F062FB32201FF02B
S3151780134053FC013DEFD1012194F8280015F058FB85
S3151780135032201FF049FC0121207C15F051FB3220E9
S315178013601FF042FC2946207C15F04AFB32201FF0DD
S315178013703BFC294694F8280015F042FB32201FF0D3
S3151780138033FC0121207C15F03BFB32201FF02CFC0F
S31517801390012194F8280015F033FB32201FF024FC26
S315178013A094F8280015F016FB207C15F013FB2846B9
S315178013B000F0CEF9074694F8280015F0EFFA05469F
S315178013C0207C15F0EBFA05EA00030646012B95D02B
S315178013D0384600F0BDF9C828EDD92A46334608495C
S315178013E06FF00F0508480CF0C5FAD4E90601FFF728
S315178013F019FED4E90001FFF715FE284603B0F0BDA4
S31517801400BD668217C9748217F474821702282DE96C
S31517801410F041064686B00F4690461D4633D802469B
S315178014201B4903A820F0D3F803A995F8280015F0CF
S31517801430C9FA50BB3246174903A820F0C8F803A942
S31517801440287C15F0BFFA0446B8B931460120FFF754
S315178014504BFB044670B92846FFF732FF044648B956
S315178014600D484246009539460C4B50F8260015F024
S31517801470B5FD06E0287C15F0ABFA95F8280015F02F
S31517801480A7FA204601E06FF0150006B0BDE8F08197
S315178014901C75821728758217F44E8217C11280170A
S315178014A02DE9F0412E480CF007F82E4F054620B14E
S315178014B000244C26DFF8B08023E02B4E0446B04636
S315178014C03B689C420AD2F36883B13046984768B125
S315178014D07569264829460CF04DFAADB9D8F81450D7
S315178014E00024234829460CF045FA0DE001344C3682
S315178014F0E6E706FB0483284659691FF04FFA18B1A9
S3151780150001343B689C42F4D33B689C4220D24C20E2
S31517801510154D002160432E18B2683046143012F0EC
S315178015205FFF024668B933690BB1304698474C233B
S31517801530104803FB0454236AE26961690CF01AFAAE
S3151780154003E071690C480CF015FA0020BDE8F081AC
S3151780155029460A480CF00EFA6FF01500BDE8F0819F
S3151780156034758217381E8317E04C82173A7582179F
S31517801570527582177475821789758217AA7582179D
S31517801580024B1878C0B200F0F20070470430120090
S31517801590374B4FF4004210B500211A606422013A86
S315178015A01960FCD1324B1B6823F4E074FFF74CF8B3
S315178015B0C0F30730632806D1FFF746F8C0B2103854
S315178015C000281EDC05E0FFF73FF8C0F307306728D1
S315178015D0F2D0FFF739F8C0F30730612811D0FFF73B
S315178015E033F8C0F3073066280BD0FFF72DF8C0F312
S315178015F00730622805D0FFF727F8C0F3073064282D
S315178016002BD1FFF721F8C0F30730612805D0FFF7F4
S315178016101BF8C0F30730662808D1154A44F4A86327
S315178016204FF4E04143F00103516018E0FFF70CF8DF
S31517801630C0F307306228F0D0FFF706F8C0F30730FB
S315178016407228EAD0FFF700F8C0F307306428E4D091
S3151780165044F4A07343F0010301E044F04103044AC4
S3151780166000201360526AC9F8DC20C9F8D80010BD6B
S31517801670008009020B4B596AD9F8DC2091423EBF8C
S31517801680D9F8D8200132C9F8D8200022C9F8DC1039
S31517801690D9F8D810D9F8DC000B4642EA0002104672
S315178016A01946704700800902D3B5FFF7E3FFCDE9E6
S315178016B00001FEF7C9FFC0F30730632806D1FEF78E
S315178016C0C3FFC0B2103800283BDC05E0FEF7BCFF2D
S315178016D0C0F307306728F2D0FEF7B6FFC0F307309E
S315178016E061282ED0FEF7B0FFC0F30730662828D0C2
S315178016F0FEF7AAFFC0F30730622822D0FEF7A4FFB1
S31517801700C0F3073064281CD00420FFF7BDFA0146C2
S31517801710009A4FF47A70019C0027A2FB002300FBE6
S315178017200434264656EA07002346CDE9002304D11A
S31517801730104622F084ED009005E068461FF084F885
S3151780174001E00249E4E7009802B0D0BDC0C62D007B
S3151780175010B50446FFF7A8FF001B10BD73B500230D
S3151780176000900193FEF770FFC0F30730632806D108
S31517801770FEF76AFFC0B2103800284BDC05E0FEF78B
S3151780178063FFC0F307306728F2D0FEF75DFFC0F31B
S31517801790073061283ED0FEF757FFC0F3073066281B
S315178017A038D0FEF751FFC0F30730622832D0FEF7E4
S315178017B04BFFC0F3073064282CD00420FFF764FA58
S315178017C0009A0026019B3146A2FB0045134A12193F
S315178017D000FB03554FF000036B41CDE900231846F4
S315178017E0014306D10E4BA2FB03239B0C8DE84800C1
S315178017F003E00C4968461FF027F8009EFFF73AFF6B
S31517801800841941F10005FFF735FFA94208BFA042A9
S31517801810F9D301E00448D3E702B070BD3F420F0009
S3151780182083DE1B4340420F00C0C62D0008B5FEF766
S315178018300BFFC0F30730632806D1FEF705FFC0B24A
S315178018401038002823DC05E0FEF7FEFEC0F30730CC
S315178018506728F2D0FEF7F8FEC0F30730612816D056
S31517801860FEF7F2FEC0F30730662810D0FEF7ECFEBF
S31517801870C0F3073062280AD0FEF7E6FEC0F30730BA
S31517801880642804D00420BDE80840FFF7FDB9014855
S3151780189008BD00BFC0C62D002DE9F04D00274FF0BB
S315178018A07C0B0446B846144B53F82850ADB108350F
S315178018B055F8080C88B11FF099F8064600F1010A09
S315178018C04CB1024626442046544455F8081C1FF04E
S315178018D0F5F886F800B05744E9E708F10108B8F13A
S315178018E0020FE0D124B10B220449601E1FF0E6F8DF
S315178018F007F10A00BDE8F08DF8B98417C07582170D
S31517801900012A2DE9F04D1746984602DC4FF0FF3530
S315178019102EE0D3F804A00026DFF860B05BF82640E7
S315178019204CB90136022EF1D0F8E751461FF036F83A
S31517801930054620B1083420680028F6D1F1E7032F31
S3151780194014D10D49D8F808001FF028F80028DDD1E2
S315178019502E466068FEF7A8FF56B1636843B1002329
S315178019601A461946184600F047FB01E00126F0E7AC
S315178019702846BDE8F08D00BFCB758217F8B9841756
S3151780198038B505460A4C206918B10CF045FA00237C
S315178019902361084B0020084A1D605A60FFF77CFFB9
S315178019A00CF0F0FA054610B1FFF776FF256138BDC2
S315178019B038B08417F8B98417C8538217044B1B7825
S315178019C0DBB213F0F20F0CBF01200020704700BF67
S315178019D00430120090D09FE507D0CDE30D20A0E10B
S315178019E0F8D04DE207D0CDE30D90A0E10D10A0E120
S315178019F00000A0E3020051E1000081350410813216
S31517801A00FBFFFF3A01DB4DE2C0D089E5DD0800FA1E
S31517801A1040D099E507D0CDE3009099E5F89049E253
S31517801A200CE08FE2440099E500E08EE0300099E5FE
S31517801A30140000EA100000EB3AFAFFEB2C009FE542
S31517801A402C109FE50020A0E3010050E1002080358F
S31517801A5004008032FBFFFF3A9E0800FB9E0800FABF
S31517801A600900A0E1301099E508F09FE500FF930083
S31517801A70F8B984176C458917C13E8017300099E5E8
S31517801A80100F0CEE1EFF2FE14C109FE5014050E022
S31517801A901000000A44209FE5000CB1E8000CA0E86E
S31517801AA0020051E1FBFFFF3A34209FE534309FE572
S31517801AB00300B2E8FF1001E2170051E30300001A92
S31517801AC0040080E0001090E5041081E0001080E5A6
S31517801AD0030052E1F5FFFF3A1EFF2FE10000801742
S31517801AE0F8B98417F8B98417903485171FB500236A
S31517801AF0D9F800200393916CD26C8DE80A000123E4
S31517801B000292694602AA04F065FE05B05DF804FBE9
S31517801B10D9F8003073B505461B6C01F40074066E50
S31517801B20144801930BF0C8FC38B1102101AA1FF095
S31517801B308BFC019910480BF01DFF0F2000F0E8FC75
S31517801B400E4B0F490F48002C08BF19460BF012FF92
S31517801B50A12000F0DDFCFEF760FD2B6F0BB1EA6E5E
S31517801B6002E0D9F800305A6C14B901992046B0476B
S31517801B7002B070BD0C76821713768217E31A831715
S31517801B80F575821738768217D9F80020D9F800307C
S31517801B906946926CA1F58051DB6C1A44521A1DF076
S31517801BA09BBF7047F8B5064634480BF085FC336FF4
S31517801BB04BB130460DF013F900285ED030480BF044
S31517801BC0D9FE1EF081FED9F800102E4C4D6C0521DA
S31517801BD085E812002C4CAB60EB602B6105F1140382
S31517801BE02360D9F80030B8B1074610F8013B202B8F
S31517801BF0FAD08BB1254B3846AB611EF0F7FE3946C6
S31517801C000D3080086861206808301EF08FFE2368C3
S31517801C101A6803EB82032360FEF73CFD23681C4A90
S31517801C20032183E806001B4998604D46D9F80020A2
S31517801C3004201961D860916C9961D26C5A6103F14D
S31517801C401C02716E226079B1B26E6AB12D68521A12
S31517801C50114D2C3343F8042C0B4A43F80C5C43F88C
S31517801C60100C43F8081C13600748FFF79AFF0022E9
S31517801C704B461B6823685A601A60F8BD51768217DF
S31517801C805A7682170100415400BA841709004154C5
S31517801C90070041540200415405004254F8B510F02C
S31517801CA0C00504461E4617D110F4807703D0184610
S31517801CB0FFF778FF12E010F4C06505D00146184685
S31517801CC0FFF726FF3D4609E01846FFF76BFF2146CB
S31517801CD03046FFF71DFF01E04FF0FF352846F8BD68
S31517801CE010B50A4B446A9C4204D009480BF030FE63
S31517801CF0012010BD836A0B60C36A13600A680146A8
S31517801D0004480BF037FE002010BD00BF18286F015E
S31517801D107A7682179776821710B50446C06E58B1B1
S31517801D2007491DF0AFF9002806DAE06EFFF7DEFEE9
S31517801D3010B104480BF00CFEBDE81040FEF76DBCE1
S31517801D40C2768217CA768217036EC06E184700004E
S31517801D50084B1B6813F4803F14BF4FF480334FF43E
S31517801D608073013B03600368002BFCD1024A136022
S31517801D70704700BF0421A0003027A0000148FFF755
S31517801D80E7BF00BF7C27A0000148FFF7E1BF00BF70
S31517801D90FC27A000054B20F01F00884202D218604E
S31517801DA02030FAE7024B00221A607047F027A0000E
S31517801DB03027A000C20638B504460D4607D002461E
S31517801DC00C490D481F340BF0D5FD24F01F04EB0684
S31517801DD006D02A460749094825F01F050BF0CAFD84
S31517801DE0074BA54202D91C602034FAE7054B00221F
S31517801DF01A6038BD896682174D718217807182176E
S31517801E007027A0003027A000D9F840200020C9F8F5
S31517801E103C20D9F84020103AC9F840207047000076
S31517801E20034A0020D9F83C3008331360704700BF47
S31517801E3040008017704700207047000008B501489A
S31517801E401FF0D2FBEC76821770B5A2B004468022BB
S31517801E50334902A81EF032FEA26BE16B3148256C1E
S31517801E600BF088FD05F07046D9F80420D2070AD5FD
S31517801E70D9F84410A06BD9F84420E36B821A2A4804
S31517801E80591A0BF077FDE36A226B616B27480BF0C3
S31517801E9071FD236A626AA16A25480BF06BFD236977
S31517801EA0244800936369A269E1690BF063FD23688F
S31517801EB021480093E1686368A2680BF05BFD002EEA
S31517801EC0B4BF4E216E2115F0804F14BF5A227A2245
S31517801ED015F0005F14BF4323632315F0805F14BF8B
S31517801EE056207620009015480BF044FD236C144A33
S31517801EF022AC144813F0800F14BF1146014613F015
S31517801F00400F03F01F0308BF02460F4804EB8303F5
S31517801F100E4C009453F8803C0BF02CFD22B070BD0C
S31517801F206846821705778217FF7682172777821773
S31517801F304B7782176F7782179F778217CF7782179C
S31517801F404C8B8217E7108317DF778217E31A83176D
S31517801F5008B5044603480BF00DFD2046FFF774FFBE
S31517801F60FFF76CFFFE77821708B5044603480BF018
S31517801F7001FD2046FFF768FFFFF760FF1578821788
S31517801F8008B5044603480BF0F5FC2046FFF75CFFBF
S31517801F90FFF754FF2978821708B5044603480BF0D4
S31517801FA0E9FC2046FFF750FFFFF748FF397882177D
S31517801FB008B5044603480BF0DDFC2046FFF744FFBF
S31517801FC0FFF73CFF4578821708B5044603480BF0A0
S31517801FD0D1FC2046FFF738FFFFF730FF4F7882177F
S31517801FE008B5044603480BF0C5FC2046FFF72CFFBF
S31517801FF0FFF724FF5478821708B508480BF0A8FC1A
S315178020004CF250301EF0F0FDFFF715FFFEF7A0FCDF
S31517802010002014F045FB002008BD00BF52798217B7
S3151780202082B000230193019B632B03DC0046019B3F
S315178020300133F7E702B0704738B511EE102F054612
S31517802040FFF7EEFF042802D1530712D5052511EEA7
S31517802050104FFFF7E5FF052D07D1FEF759FA24F044
S31517802060040301EE103FFEF753FA24EA050401EE46
S31517802070104F38BD7047D9F8F03041EA005141F416
S31517802080406143F820107047F8B500F57F2303F6B3
S31517802090FF73050D1944D9F8F0702E460C0DA6421C
S315178020A005D230461146FFF7E6FF0136F7E707EB0D
S315178020B0840107EB8500BDE8F840FEF75EBA10B5D8
S315178020C0D9F8004004EBC004A26C120DE36CA16C26
S315178020D01B0D03EB1153934205D910461E21FFF7AB
S315178020E0CAFF0132F2E710BD08B511EE102FFFF7C0
S315178020F097FF42F4805201EE102F08BD4FF480509F
S31517802100FFF79ABF11EE100FC0F30030704710B566
S3151780211011EE102F12F001041FD1FEF709FA22468D
S3151780212010461221FFF7A7FF0132B2F5805FF7D16C
S315178021300020FFF7C4FFD9F8F03002EE103F4FF0BA
S31517802140FF3303EE103FFFF795FF11EE102FFFF7C2
S3151780215067FF42F0010201EE102F11EE102FFFF7E5
S315178021605FFF42F0040201EE102F10BD0420FFF727
S3151780217063BF11EE100FC0F38000704708B50221B8
S315178021800D48FEF789FF00221146104614F094FA7F
S3151780219020B10A48BDE808400BF0DABB40F6B832E2
S315178021A04FF4FA7114F08FFA0028F2D114F0A8FAC6
S315178021B00028EED108BD00BF484482177E79821762
S315178021C0FEF7C8BBF8B52B480BF076F990B11022FD
S315178021D000211FF001F9064627480BF06DF910B15B
S315178021E0007800F0030015F0D9FA044628B9234879
S315178021F00BF0C0FB4FF0FF30F8BD16F077FA20488A
S315178022000BF05AF918B1057805F0030500E001259A
S315178022101C480BF051F9074618B91B4919480BF09A
S3151780222001F804F1C80029461AF0A4FB04460028D1
S31517802230E0D12A46394615480BF09CFB14480BF01B
S3151780224099FB10480BF038F9224631461BF0CEF829
S315178022500028CFDD0F480BF08DFB0F480BF02CF9BC
S31517802260054628B90D490C480AF0DCFF2846F8BD03
S315178022702046F8BD9C798217A8798217BC79821770
S31517802280D9798217EE798217047A8217127A82178A
S31517802290540C8317417A8217477A8217517A821795
S315178022A010B54C46FEF714FF6063002010BD000082
S315178022B008B5036901201A68044B9A4205D114F0B0
S315178022C06DFBB0FA80F0400908BD08BD0000190201
S315178022D038B5072105461248FEF7DEFE0A20FEF7B7
S315178022E0D3FC104C042323726060012014F072FB18
S315178022F02146284615F0B2F888B90B210A48FEF709
S31517802300CBFE0A20FEF7C0FC082304F12C0184F8C3
S31517802310343020632846BDE8384015F09FB838BD5D
S3151780232048458217A01E8317B845821708B5436894
S315178023309B6903B19847002008BD000038B50B216B
S31517802340114C05461148FEF7A7FE00216368B02099
S3151780235043F40013636014F053FB44F620601EF0B9
S3151780236043FC0121B02014F04BFB63680121002048
S3151780237023F4C8236360FEF72DFC20B92846BDE8F1
S315178023803840FEF779BF38BD00000E0278448217B1
S3151780239008B502211148FEF77FFEFEF7D9FD104BCF
S315178023A05A6F42F440525A67DA6A22F4FC4242F470
S315178023B05852DA621A6A42F480621A625A6B42F08B
S315178023C003025A6303F5E03340F201229A60DA6812
S315178023D022F0C0020020DA6008BD00BF28458217A8
S315178023E000400C020120704708B50F48FFF7C8FA5E
S315178023F0FEF72AF9C0F30730632805D10B490C4835
S315178024000AF010FF0B490AE0FEF71EF9C0F30730F2
S315178024106728F3D0084906480AF004FF0749084891
S315178024200AF000FF002008BD18488217557A8217D0
S315178024305A7A8217647A8217807A8217867A8217EF
S31517802440777A821708B5154AD9F800305A64FEF795
S31517802450FBF8C0F30730632807D1114B7F22114948
S315178024600120FEF7D3FF104B0CE0FEF7EDF8C0F313
S3151780247007306728F1D00D4B7F220A490120FEF7D6
S31517802480C5FF0B4B7F2207490220FEF7BFFF0221AC
S315178024900848FEF701FE002008BD00BF00010010A6
S315178024A0401E8317A0860100D81D8317081E831721
S315178024B0701E83175844821708B5FEF7C5F8C0F300
S315178024C00730632803D10F480BF042FA05E0FEF771
S315178024D0BBF8C0F307306728F5D0FEF7B5F8C0F319
S315178024E00730662802D108480BF032FAFEF7ACF8A7
S315178024F0C0F30730612802D104480BF029FA00206F
S3151780250008BD00BF9B7A8217BB7A8217DB7A821740
S31517802510704708B5A220FFF7FBFF0CF069FF01F0A3
S315178025205DFA01F0A5FABDE808400CF05DBF70476B
S315178025300720704710B578204C460BF023FD394994
S31517802540A066D9F8682038481160D9F868203749C5
S315178025505160D9F8682036499160D9F8682035498D
S31517802560D160D9F8682034491161D9F86820334980
S315178025705161D9F86810324A8A61D9F86810CA61E8
S31517802580D9F868100862D9F868102E484862D9F8C1
S3151780259068102D488862D9F868102C48C862D9F80F
S315178025A068102B480863D9F868102A484863D9F801
S315178025B0681029488863D9F868102848C863D9F8F5
S315178025C0681027480864D9F8681026484864D9F8E7
S315178025D0681025488864D9F868102448C864D9F8DB
S315178025E0681023480865D9F8681022484865D9F8CD
S315178025F068108A65D9F86810CA65D9F868100A66A6
S31517802600D9F868104A66D9F868108A66D9F86810B2
S31517802610CA66D9F868201849D9F868301167174AF1
S315178026205A6710BD3125801785DF8017B9D980176E
S31517802630EDD980172DD9801751D9801775D980175D
S315178026402F25801719DE8017E90B821751178017E8
S3151780265007DA8017F91F8017B9D4801725D2801704
S31517802660D9138217491482178B1482179D098217DB
S31517802670C96B8117956B8117A51482177D158217DC
S315178026802DE9F041069E079D012E28DDCB0701D542
S31517802690022E24D01022002128681EF09DFE1022BB
S315178026A00021074668681EF097FE4FF48033394637
S315178026B00246044600201EF0C5F83A19013A3946F3
S315178026C00346804609480BF055F9022E0BD0102287
S315178026D00021A8681EF080FEC0F8008003E04FF046
S315178026E0FF30BDE8F0810020BDE8F0812F7B82178F
S315178026F0026800234360036102B113707047036851
S315178027005A1C02601878002808BF4FF0FF307047B0
S315178027100368187870470000034A013810F8013F9C
S315178027200BB1D154FAE7704714BB841701480BF0E5
S3151780273021B900BF5A7B82172DE9FF4D00264FF02E
S31517802740180B04460191002C3DD00026019B374675
S315178027500333029323689F4229DA0BFB07F8D4F8D1
S3151780276004A00AEB08055AF80810C1B10021A86819
S31517802770814208DA2868039150F821000BF04CFB48
S3151780278003990131F3E75AF808000BF045FB68689F
S315178027900BF042FB0021A9604AF8081005E0E868AB
S315178027A018B10299FFF7C8FF06460137D2E7606866
S315178027B00BF032FBA568002320466360A3602C4686
S315178027C00BF02AFBBFE7304604B0BDE8F08D00005A
S315178027D008B50BF0D7FB18B902480BF0CBF8FEE714
S315178027E008BD00BF687B821708B51420FFF7F0FF76
S315178027F00022026042608260C260026108BD0000EA
S3151780280008B50BF02DFE18B902480BF0B3F8FEE7A2
S3151780281008BD00BF687B8217036870B50646856852
S3151780282033B1DA680AB91B68ABB12B6801332B60F1
S3151780283029681824686801FB0441FFF7E1FF2B68B4
S3151780284000225C430319686002515A60DA601A6184
S31517802850B26933605A61002070BD38B504460D469B
S31517802860FFF7DAFFA368E268DD6000251A61FFF7D4
S31517802870BBFFA3689860A06020462560FFF7CCFF52
S31517802880284638BD43682DE9F04D07460C4623B9CF
S31517802890036913B90020BDE8F08D2568EB6813B17D
S315178028A0FFF744FF95E02E6816B13B6801207DE05F
S315178028B0A3699B07F9D5DFF88CB156F80B100BEB8C
S315178028C0060A38681EF06AF88046002862D1DAF858
S315178028D0083018052AD51C20FFF77AFFE3680C2BDA
S315178028E0834601D0062B05D1FFF720FF58460BF0FC
S315178028F093FA25E0264605460FCE0FC596E80700BC
S3151780290085E80700C4F80880C4F80080FFF76CFFD5
S31517802910C4F80C80C4F81480C4F810806060A06076
S315178029202046FFF779FFC4F814B00CE0E3682BB1A3
S315178029302369DAF804201341D90704D4FFF7F6FE82
S315178029400D23E3601CE0DAF80430E360DAF8083028
S31517802950DA07236114D501212046FFF77EFFD4F8C5
S3151780296014E062682546DEF800307646DA600FCEC8
S315178029700FC596E8070085E8070070460BF04CFAF6
S315178029803846FFF7B5FEE068A0F10D035842584167
S31517802990BDE8F08D0C36842E8FD186E71A783AB13A
S315178029A05C2A00F1010008BF01330133002BF5D1F2
S315178029B00BF0E8FA804660B1286800B9A860AE685F
S315178029C0731C0236AB60B60031460BF049FD2860A2
S315178029D010B90120BDE8F08D314668680BF040FDCF
S315178029E068600028F5D02A68A6F108033969043E7D
S315178029F042F803806A68D15000232A6893516A681F
S31517802A0093513B6893B90025384688F80050FFF7ED
S31517802A106FFEE368062B7FF43DAF21463846FFF7F6
S31517802A2031FF01212046FFF718FF33E71A78002A6E
S31517802A30E9D05C2A08BF013313F8012B08F8012B5C
S31517802A40E0E700BFF81E8317012A2DE9F34D1746D5
S31517802A509B4602D0002401262FE01E4B1C68002CB3
S31517802A6034D094E806001C480AF084FF0AF0DAFF8F
S31517802A7020B11A480AF06CFF012028E02469EEE796
S31517802A80414628681DF08AFF38B9019095E80600F7
S31517802A9011480AF06FFF019B9A460AF0C3FF002878
S31517802AA0E7D12D69002DEBD1BAF1FF3F04D141460D
S31517802AB00B480AF05FFF01340136BE4206DA054B32
S31517802AC04FF0FF3A5BF826801D68EBE7204602B089
S31517802AD0BDE8F08D40BC8417867B82178D7B821765
S31517802AE0997B821788B1094A0378D35C13F003035D
S31517802AF00AD010F8013FD15C4907FAD15F2BF8D07D
S31517802B003D3B584258417047184670470E688217A2
S31517802B1003682DE9F0410446002B75D136E01DF088
S31517802B2065FF002865D101236360A36800263C4DA5
S31517802B30012B08BF3B48A84618BF3B480CF0DAFF65
S31517802B400130284601BF00236360384A13601DF0A1
S31517802B504DFF0A232B54284446700AF0C1FF08B14B
S31517802B60324B1E600AF0C2FFA768314B0026012F31
S31517802B701E6017D12A782D4D0A2A0BD12A687AB961
S31517802B8027492C481DF0D2FE2A4B2360206800283F
S31517802B90C5D1C8E7224927481DF0C8FE2F60F3E73D
S31517802BA01F60F1E72B780A2B1AD0224D28461DF085
S31517802BB01DFF07461A481DF019FF3844FF280AD803
S31517802BC028461DF013FF16492023284400F8013C98
S31517802BD01DF0ACFE04E00A232B70144B6E701E603A
S31517802BE062681AB9134B0A215A701970C4F8008093
S31517802BF0CCE720680223A36078B1037863B1431CBE
S31517802C0023600078BDE8F0811A78002ABED05A1C56
S31517802C1002601878BDE8F0811846BDE8F08100BFDC
S31517802C20F40886177AA682175B0C831704BA84175B
S31517802C3014BC84170CBA841770B50E4643680446BD
S31517802C4081688B420CDB056801F16403653183600B
S31517802C5028460BF005FC206020B928460BF0DCF8D7
S31517802C60206840B16368C6540020636822680133C0
S31517802C706360D05470BD012070BD000038B504461E
S31517802C800D462AB929462046BDE83840FFF7D4BFF6
S31517802C9005481DF09FFE0028F4D05C212046FFF7DB
S31517802CA0CBFF0028EED038BDB57B8217036818781E
S31517802CB07047000038B5054608B9002038BD037837
S31517802CC0242B0DD1437800200C4C3F2B207014D128
S31517802CD00B4B20460B491A681EF079FC204638BDE7
S31517802CE0094B1C68002CE8D0294620681DF056FE33
S31517802CF008B9606838BD2469F4E738BD18BC8417ED
S31517802D0010BB8417BA7B821740BC84172DE9F04D08
S31517802D10884603783C4AD35C9B0722D01DF08AFEEF
S31517802D2007460AF0C9FB044630B138480AF022FE36
S31517802D3038460BF071F814E03D2138461DF04AFEEF
S31517802D40334B1D68002808BF012000F1010A047063
S31517802D501C4655B1394628681DF020FE28B32D69C3
S31517802D60F7E74FF0FF30BDE8F08D14200BF00AF926
S31517802D70064628B338461DF05DFE306018B93046D2
S31517802D800BF04AF81CE05046D4F800B01DF052FEFE
S31517802D903561C6F80880F5607060DBF810400CB1B5
S31517802DA0A346FAE7CBF810600CE0514668681DF029
S31517802DB0F5FD68B1EB689BB1394616480AF0DAFD1E
S31517802DC04FF0FF3438460BF027F82046BDE8F08DD4
S31517802DD0B8F1000F15DDAC689CB9C5F80880F1E726
S31517802DE0B8F1000F02DCAB68012B01DD0123AB6064
S31517802DF0686800240BF010F850461DF01BFE6860BB
S31517802E00E0E70124DEE700BF0E688217BD7B8217D5
S31517802E1040BC8417007C82172DE9FF4D0024054698
S31517802E200291A0462646032128461DF0D3FD074664
S31517802E30002800F0B080BD420ED0C5EB070A2046A9
S31517802E4006EB0A084146FFF7DBFC5246294604463D
S31517802E5030441DF073FD4646013703214FF00008B5
S31517802E6038461DF0B7FD019080F80080002F00F0DE
S31517802E708A803A2138461DF0ADFD824618B9002260
S31517802E809046154612E0437880F800802D2B02D1A4
S31517802E90851C42460AE03D2B04D14246851C4FF0DD
S31517802EA0010803E02B2BEAD1851C012238460392B1
S31517802EB00AF002FB039A834648B93846FFF7FAFEAB
S31517802EC0039A834618B9B8F1000F28D006E05846FA
S31517802ED003921DF08BFD0028F5D019E038461DF0BA
S31517802EE085FD804628461DF081FD404402300BF053
S31517802EF049F8804640B137492B463A461EF067FB5C
S31517802F0000214046FFF702FF40460AF085FF06E09C
S31517802F10039A42B158461DF069FD0BEB0005BAF1CD
S31517802F20000F04D106E05D46BAF1000F03D03A23AD
S31517802F308AF800303DB3029B284623B11DF056FD13
S31517802F40B71C074402E01DF051FD37182046791C3F
S31517802F50FFF756FC029B044683B106F10108294602
S31517802F6080444FF0040A40461DF0E0FC04F806A0A2
S31517802F7028461DF03BFD08F800A003E0294630449B
S31517802F801DF0D4FC3E46019D4FF003034FF0010818
S31517802F9005F8013B47E7B8F1000F14D028461DF016
S31517802FA025FD711C01442046FFF72AFC2946044655
S31517802FB030441DF0BBFC20260A2120461DF00AFD51
S31517802FC008B10670F8E7002C14BF2046284604B0CF
S31517802FD0BDE8F08D167C82172DE9F0410E4686B036
S31517802FE00446002836D00378002B35D00A21DFF81F
S31517802FF078801DF0EFFC1A4F08B14378F3B120465D
S315178030001DF0F4FC0230FFF7E3FB214605461DF061
S315178030108DFC144928461DF09DFC314601A80123D5
S31517803020CDF81480029303930497019500F08AFADA
S31517803030044628460AF0F0FE20460EE0314601A8DF
S315178030400123CDF81480049702930393019400F01B
S3151780305079FA02E0012000E0184606B0BDE8F08153
S31517803060FF268017677C8217AD2C80172DE9F04DC8
S315178030708EB006460346E3B11A699B680C2A01D0BF
S31517803080062AF8D12BB9FFF751FB9D4B00221A6000
S3151780309045E20C2A07D11A690C2AECD15A681268AC
S315178030A0002AE8D0EFE7062AE5D11A690C2AE2D07A
S315178030B0E9E74FF00B0801271D469A469B4603936F
S315178030C00493069305930B930A93002E00F0298297
S315178030D03369063B022B0DD80AF0A4FC0AF000FDD3
S315178030E0002840F01C82039B0BB1059002E08246B4
S315178030F0039605903469A04506D12FB1F76817F165
S31517803100FF3718BF012703E2022C02D0042C0BD1FC
S3151780311004E0049B002B40F0F78103E0049B002B0F
S3151780312000F0F2810693C3E0032C04D1069B002B93
S3151780313040F0BE80F5E1062C40F0A4803368002B62
S3151780314000F0E481BBF1000F7BD1B3685B681F6821
S31517803150002F00F0DB8173681B681B6818460A937B
S315178031601DF044FC0B900420FFF732FB3B1F09939D
S31517803170002307938346099B53F8040F0993002866
S3151780318053D00021FFF748FE074608903B78002B5F
S3151780319042D0202B01D10137F8E7202138461DF080
S315178031A019FC034610B1C7EB000A04E038461DF038
S315178031B01DFC3B1882460C935846079B03F1020861
S315178031C04FEA88084146A8F10808FFF719FB0B9BB9
S315178031D08346981C5044FFF7FBFA0A994BF8080068
S315178031E01DF0A4FB47495BF808001DF0B3FB524658
S315178031F039465BF808001DF0BCFB079B5BF8082077
S31517803200013307930B9B1A444FF0000392448AF8B5
S3151780321001300C9B1F46B9E7099B089A1B689A428F
S31517803220A9D010460AF0F8FDA5E7079B4FF0010ACB
S31517803230CDF82CB04BF8230073681B681A68186092
S315178032400A927368DBF800801B681868B8F1000F5C
S315178032500DD10AF0E1FD0B980AF0DEFD73680A9A24
S315178032600B240127C2461B68C3461A6050E108B172
S315178032700AF0D2FD73680BF1040B5BF8042C1B68FC
S315178032801A6015E00C2C00F04181092C04D1BAF193
S31517803290000F00F03B810BE00A2C09D1059BBAF190
S315178032A0000F18BF01230593039B08BF00230393C1
S315178032B03368002B00F02A81012B40F00681D6F85F
S315178032C00480D8F80C0010B1FFF7D0FEF2E0D8F8DA
S315178032D00070002F00F0F980054657F82520104614
S315178032E00792FFF7FFFB079A08B10135F5E7064BFB
S315178032F01B680793002D47D042B1054644E000BFAF
S3151780330004BA84179CA7821714BC84171746D8F853
S315178033100030D85900B31DF08DFB3D2105461DF0B1
S3151780332059FB10B14FF00003037028460AF074FD5D
S31517803330D8F800300021D859FFF76EFD00210546D1
S31517803340FFF7E4FCD8F80030DB599D4202D02846B7
S315178033500AF062FD0437DAE70546B8E00021104621
S31517803360FFF75AFD00210746FFF7D0FCD8F8003043
S315178033705B59BB4207D0D8F810303846013BC8F89E
S3151780338010300AF049FD0435D8F800305F195A59BC
S3151780339010460892FFF7A6FB089A0028DED1D8F8C0
S315178033A0101000296ED007906048D8F80480FFF770
S315178033B081FC38B10078079B302805D0031C18BFCD
S315178033C0012301E0089000E0089345444FF0000878
S315178033D03B1F0793474602230C93079B53F8042FEB
S315178033E00793002A3BD008991046FFF715FD0990D9
S315178033F01DF0FCFA29680C9B0D9503EB41010144DE
S315178034003846FFF7FDF90746B8F1000F03D048494C
S315178034101DF0A0FA01E080F800802B681BB14549A2
S3151780342038461DF097FA099938461DF093FA0D9B81
S3151780343004351B681BB13F4938461DF08BFA384651
S315178034401DF0D4FA099AC31C0C93079B1B689A42E2
S3151780345002D010460AF0E0FC08F10108BDE73846AD
S3151780346007921DF0C3FA079A0A2305213B5438445D
S3151780347042703846FFF7B0FD38460AF0CDFC2E4B22
S315178034801D6818E03B2110461DF0A4FA30B1D8F814
S3151780349000302A4859590AF06DFA16E000900798B5
S315178034A0274B0030D8F80020D8F8081018BF01200D
S315178034B00CF0C6FD05466B1C09DA1F4A6FF001032F
S315178034C05B1B6FF0010013602CE04FF0FF351A4A33
S315178034D02B1C18BF0123136024F00202012A0AD07D
S315178034E0072C04D1B5FA85FA4FEA5A1A04E0082C44
S315178034F008BF9A4600E00495F3680DB9032B00E0E0
S31517803500022B18BF0B2402E0049B06930B2401277A
S31517803510059B0BB9B66800E0039EA046D5E501204A
S3151780352000E028460EB0BDE8F08D00BF1C7C8217E0
S3151780353044198317F881821710BB8417297C821741
S3151780354004BA84172DE9F04D90B0044614220091E1
S3151780355004A8002101261DF08EFA009B002513F082
S31517803560080F14BF4FF0FF330A230193009B0B9567
S3151780357009950F93FFF738F90C950E950D95A54F6D
S315178035800A900B9009A8FFF747F9A34809F094FF0B
S3151780359008B1386001E0A14B3B604FF4807200217F
S315178035A09F481DF068FA032103A804238DF80D5050
S315178035B08DF80C30FFF7B0F803219A48FFF7ACF86F
S315178035C001219948FFF7A8F802213868FFF7A4F870
S315178035D0009B03F00603022B03D000219348FFF7C5
S315178035E09BF80123A360E36820469847B0F1FF3F15
S315178035F0804600F03F818A4A12F808B06268002A2E
S3151780360000F03A81B8F10A0F04D022692046904714
S31517803610824601E04FF0000ABBF1000F05D00BF18F
S31517803620FF32012A15D8079A12B1079A414659E0EF
S31517803630BBF1020F0DD109A904A8FFF723F90028BA
S3151780364040F01A81B8F10A0F03D1012109A8FFF7B3
S3151780365004F9019B984505D1079F1FB90C9A002A33
S3151780366000F00E81BBF1020FBDD0B8F1260F00F026
S31517803670C48012DCB8F1220F00F0B18006DCB8F1F5
S31517803680040F40F0F48001230893EAE0B8F1230F82
S3151780369017D0B8F1240F38D0E9E0B8F13B0F00F016
S315178036A0A68006DCB8F1270F40F0E1800123089346
S315178036B08EE0B8F15C0F19D0B8F17C0F00F0BA80A4
S315178036C0D5E0059B63B9079B53B92369204698476D
S315178036D0471C88D00A2886D0E36820469847F4E79F
S315178036E0079A232104A8FFF7C9FA7CE7BAF1FF3FA7
S315178036F000F0BD80079A414604A8FFF7BFFAE36832
S3151780370020469847079A0146ECE722692046904754
S31517803710474BC2B207469A5C910714D0032104A877
S31517803720FFF78AFA099A13690133136123692046C9
S3151780373098473F4AC3B20746D35C5A0740F0DA80A8
S315178037405F2834D1D6E03F280DD07B2834D103218A
S3151780375004A8FFF771FA099A204613690133136192
S31517803760E36898471CE0099904A80A6901320A6137
S315178037700321FFF761FA414604A8FFF75DFA394638
S3151780378004A8FFF759FA032104A8FFF755FAE36847
S315178037902046984727E77D2809D004A8FFF74CFAD3
S315178037A0E36820469847431C0146F4D15FE003211E
S315178037B004A8FFF741FA16E7079A242192E72728E4
S315178037C03FF411AF6368002B56D004A8FFF734FA7D
S315178037D0E36820469847471C0146F0D147E0012306
S315178037E00893079BB3FA83F35B090793FBE609A94B
S315178037F004A8FFF747F8012127E009A904A8FFF7CE
S3151780380041F8BAF1260F32D1E3682046984702214C
S315178038101BE000BF08BA8417617C8217657C821704
S3151780382014BB8417697C82176E7C8217737C821708
S315178038300E68821709A904A8FFF724F8BAF17C0F36
S3151780384015D1E36820469847032109A8FFF705F89D
S31517803850C9E604293FF4C7AE63686BB104A8FFF7BE
S31517803860EBF9E3682046984701460130F1D1FEF718
S315178038705DFF01E0074603E03C4B01271D600AE028
S315178038800D9B1BB1FEF752FF384B1D60DDF834A038
S31517803890BAF1000F36D00D9B2BB10E980AF0BCFAF1
S315178038A004A8FEF725FF636813B931480AF062F852
S315178038B001232560636000210A9808950795FEF70E
S315178038C03BFF04A8FEF714FF04980AF0A5FA04959F
S315178038D00695013744D0009BDB0741D42269254BD7
S315178038E09A427FF443AE2046FFF7E0F900287FF42B
S315178038F03DAE35E0E36820469847394604A8FFF77A
S315178039009BF913E709A904A8FEF7BCFF012109A8AB
S31517803910FEF7A3FFDDF828B05846FFF7A7FB5146F9
S3151780392006465846FEF708FFB11C12D104A8FEF7C3
S31517803930DFFE04980AF070FA22690F4BCDF810A0B3
S315178039409A42CDF818A00AD10C4856460AF012F8B2
S31517803950BFE7721CB5D1054BC3F800A0B1E7564631
S31517803960301C18BF012010B0BDE8F08D04BA84173B
S31517803970A17C8217AD2C801711278017787C821728
S315178039807FB506A8074B02210593074B049301239E
S3151780399002930393002340F8143DFFF7D3FD07B036
S315178039A05DF804FB11278017112B801738B5084D42
S315178039B02C685CB914200AF0E5FA064B0360064BAF
S315178039C028600461436001238460C360002038BD8A
S315178039D040BC8417AE7C8217BB7C821738B51B48D0
S315178039E009F06AFD28B10A2200211DF04EFD054611
S315178039F000E00225164B1C6814F480140CD103F5CD
S31517803A003B23144803F5A07325461C6009F0B2FFC3
S31517803A10114809F011FE02E0104809F0ABFF104873
S31517803A2009F04AFD0A4B1B680446DB0207D40D488A
S31517803A3009F042FD044601460B4809F09BFF4B46A9
S31517803A402046DB6D094B1D6038BD00BF7E7D821712
S31517803A5000900C02887D8217A47D8217CF7D8217EE
S31517803A60DC7D8217E47D8217F07D821744BC84172C
S31517803A70F8B506461C4B1C68631C33D090B3002CD4
S31517803A8003DB2146194809F075FF0025002C1DDD3B
S31517803A90DDB92846FDF75CFE074609F0A7FF20B17A
S31517803AA009F08AFF012500240AE042F210701DF002
S31517803AB09BF83846FDF74CFEB0F57A7FEDD3013C7F
S31517803AC021460B4809F056FFE0E701250A2009F041
S31517803AD02DFF3DB92A4630464FF0FF31BDE8F840F5
S31517803AE00BF03DBCF8BD00BF44BC8417057E82171A
S31517803AF0287E821703490020034B5B1AC9F8383092
S31517803B00704700BF000080176C458917D9F8303089
S31517803B10002023F47F6323F00F03C9F830307047F2
S31517803B204FF48042C9F8F420D9F8F4100020D9F858
S31517803B303020521AC9F83020D9F83020120C1204C6
S31517803B40C9F83020D9F83020C9F8F0207047D9F84D
S31517803B5038100020D9F83020521AC9F83020D9F8F1
S31517803B60302022F47F6222F00F02C9F83020D9F86C
S31517803B703020C9F840207047D9F840300020A3F587
S31517803B802003C9F840307047D9F8003041F2E73240
S31517803B9000201A647047D9F840200020F83AC9F8EF
S31517803BA04020D9F84020C9F848207047D9F85C20BA
S31517803BB0BAB1D9F85C20526812BA02F580521F3210
S31517803BC022F01F02C9F86420D9F86410D9F840206A
S31517803BD0521AC9F84020D9F84020D9F86410C9F884
S31517803BE060200020704700207047D9F8C020002039
S31517803BF0D9F8C02002F58062C9F8C420C9F8C80070
S31517803C0070470020704708B54946D9F83030F822F2
S31517803C10A3F1BC53C9F84430D9F848001CF04EFFBD
S31517803C20002008BDD9F8602008B55AB1D9F86000C8
S31517803C30D9F85C10D9F864201CF040FFD9F86020B9
S31517803C40C9F85C20002008BD08B5024809F080FE37
S31517803C50002008BD307E821708B5054809F078FE22
S31517803C6012F080FF034809F073FE002008BD00BFDD
S31517803C70387E82173000831710B54FF4E1320A2148
S31517803C8003484C4609F051FCA060002010BD00BFC8
S31517803C90407E821701200DF009BE08B59A20FEF7DF
S31517803CA037FC002008BDD9F8001008B569B9D9F8CE
S31517803CB04020503AC9F84020D9F84020C9F800204A
S31517803CC05022D9F800001CF0D6FE002008BD00202F
S31517803CD070470020704700207047704770477047BD
S31517803CE0D9F8003010B50024D86C064A21461CF046
S31517803CF063FC2046FFF7F3FF0A2009F017FE2046DC
S31517803D0010BD00BFE31A8317D9F800204FF08051F2
S31517803D1010B59164D9F800400BF06AFAE06410BDCB
S31517803D2008B5FFF7F1FF002008BDD9F82C20B2F1AE
S31517803D30805F2CBFD9F82C000020704710B54FF044
S31517803D408052C9F82C200BF053FAD9F82C304C46F0
S31517803D501844C9F82C00D9F83800FFF7E6FFE06257
S31517803D600020D9F82C20C9F8302010BDD9F840206A
S31517803D70103AC9F84020D9F8402022F00F02C9F826
S31517803D804020FEF741B8000008B50022C9F80400A4
S31517803D90C9F8202003481BF0B1FD08B11CF094FD2B
S31517803DA008BD00BF7C1F831700207047034A002079
S31517803DB0034B9B1A034A1360704700BF0000801796
S31517803DC09034851748BC84170020704700207047A9
S31517803DD008B5FEF79EFBFCE708B5044809F0B8FD61
S31517803DE0D9F800001EF0A4FA002008BD497E821774
S31517803DF0D9F8001008B5303102481EF06FF9002047
S31517803E0008BD00BF9F9B821708B5FEF713F80020E1
S31517803E1008BD08B5FEF78EFB002008BD10B509F062
S31517803E20DBFC1021034C0448226809F07EFB2060D6
S31517803E30002010BD843C8317517E821708B504482D
S31517803E4009F086FDD9F8000014F0F8FC002008BDAB
S31517803E505A7E821708B515F05DFE002008BDD9F881
S31517803E604C200020C9F85020C9F84C000DF01EBD13
S31517803E70D9F830004FF4200108B5A0F5200009F0D5
S31517803E8077FF002008BD08B5FCF7E6FC002008BDC3
S31517803E9008B59B20D9F8043043F4007343F0010327
S31517803EA0C9F80430FEF734FB002008BD00207047A0
S31517803EB000207047704708B5FFF7FCFF002008BD44
S31517803EC008B502481BF01AFD1CF0FEFC1820831754
S31517803ED0FEF7F2BA0346084611461847012A70B507
S31517803EE0164618DD1C46102254F8040F00211DF0C3
S31517803EF073FA054601460A4809F03CFD2246711EAB
S31517803F002846FFF7E7FF041C0146064818BF012419
S31517803F1009F030FD01E04FF0FF34204670BD00BF39
S31517803F20727E82179A7E82172DE9F04502F1FF3845
S31517803F30B8F1000F87B006460F4615461C4603F1A3
S31517803F40040A2CDD1022586805A91DF045FA059B31
S31517803F501A7822B33A2A22D0232A20D0092218493E
S31517803F6060680BF0CFFDAA1E04F10803A0B1C168E3
S31517803F701448012908BF072111F0010F07D1D0F87E
S31517803F808C40A14203DC104809F0F4FC04E00024BD
S31517803F900190029400910BE04FF0FF300CE0012363
S31517803FA00293084B4246019340F20F730093534690
S31517803FB03946304600F0A0F907B0BDE8F08500BF56
S31517803FC0082483174CBC8417587F821710B50C4664
S31517803FD0034809F071FA2146BDE810400BF0B8B9CD
S31517803FE0DC7D821738B501460446184809F0C2FCAD
S31517803FF020460AF0BFFD0128054621D1144809F04D
S31517804000A7FC2268134B9A4201D0134804E0204636
S315178040100AF04CFC18B9114809F09AFC14E02046AE
S315178040200AF026FD0E4809F093FC20460AF053FC49
S3151780403008B90C48F0E70C48002509F089FC03E01D
S315178040400A48012509F084FC284638BD827F8217E5
S31517804050A37F821727051956BA7F8217CF7F8217B4
S31517804060E77F82170280821713808217178082173D
S31517804070012AF8B516461F4605DC0C4B1868BDE8AD
S31517804080F840FFF7AFBF002501241022002157F80B
S31517804090240001341DF0A0F9FFF7A4FF002818BFEC
S315178040A00125A642F1D12846F8BD00BF843C831767
S315178040B073B505460D480E4609F0FEF908B9002076
S315178040C012E00B491CF06AFC04460028F7D1094B0D
S315178040D0019009481968009609F04CFC6B46012235
S315178040E021462846FFF720FF02B070BD2E80821723
S315178040F038808217843C83173C8082172DE9F045D8
S31517804100561E224C87B01F1D1D4632460123029329
S3151780411082468DE818003B46884600F0EDF81EB9B2
S315178041201B4B1B68236605E01022002168681DF06B
S3151780413053F9206605AA04A9206E144DFDF7D0FD04
S31517804140F8B9049B05F19000059A296ED21A1BF0CF
S31517804150C3FC3A463146404600F01CF888B900F051
S31517804160C3F805230194324684F85E30414601230D
S31517804170504602934FF4E06300933B4600F0BCF839
S3151780418000E0012007B0BDE8F08500BF4CBC84175E
S31517804190843C8317F0B585B0164C0D4616460746F0
S315178041A004F1680331460193224604F164032846D5
S315178041B0009302230AF0F2FC08B10F480FE004F1CE
S315178041C0700329460293324604F16C0300940193D7
S315178041D0384602230AF0EEFE054620B1074809F055
S315178041E0B7FB012003E0E06E01F00AFD284605B013
S315178041F0F0BD00BF4CBC8417488282176D82821728
S315178042002DE9F0410546DDF82880D8B216460C46CA
S31517804210099FC8F800100AF017FC024655B9294BB2
S3151780422029492A48B44218BF194609F0A3FBB44254
S3151780423007D13CE00146264809F09CFB012D0AD0A0
S3151780424012E0089ABA4217D84FF48033079906981E
S315178042500AF0C2FB2BE008AB079A394606981BF083
S3151780426013FB064618B308E029461A4809F082FB5D
S315178042706FF00200BDE8F0810126E8B2089C0AF0CB
S31517804280EDFBA742014603D8134809F073FB03E0F9
S315178042903246124809F06EFB114809F06BFB6FF036
S315178042A00500FEF735F94FF0FF30BDE8F081089B22
S315178042B00C481C44C8F8004009F04AFB0020BDE8AA
S315178042C0F08100BF95828217918282179D8282170D
S315178042D0AB828217C4828217E78282171783821767
S315178042E0308382171380821710B5FDF7A4FD044615
S315178042F006F012FE204610BD2DE9F04D8EB0984679
S315178043001746179D169E0991D5F88C30F107079099
S3151780431043EA0603C5F88C3028D5BD4C4FF49872FE
S31517804320002120461CF0A7FBBA4809F05BF9C4F8B0
S31517804330880004F190001BF07CFB0AF00FFB824685
S315178043400AF01CFB5146024604F190001BF07CFBD9
S3151780435004F19000FDF718FC04F190001BF031FC76
S31517804360A020FEF7D5F80123C4F88C30B20740F1A8
S31517804370F38000200DAA87420CA90C904FF0000BF2
S315178043800D90C8BFD8F800000AF0EAFBDFF880A2C4
S3151780439004460120FEF7BCF820460AF0FBFBCAF854
S315178043A054B0CAF850B004460AF0E4FB012844D149
S315178043B02146994809F0DEFA2268984B9A4205D029
S315178043C0974809F0C5FA4FF0FF3032E00220DAF845
S315178043D088B0FEF79DF820460AF068FA28B9914802
S315178043E009F0B6FA6FF0010023E00320FEF790F884
S315178043F020460AF03DFBBBF1000F0FD08A4809F023
S31517804400A7FA20460AF067FA28B9884809F0B2FA57
S315178044106FF002000DE0864809F09AFA0420FEF73D
S3151780442077F8617F022963D0824809F0A3FA6FF083
S315178044300300FEF76DF8002409E0079B5C467E486B
S31517804440196809F097FA6FF06F00FEF761F8DAF8D6
S315178044505430DFF8BCB10BB978482EE020460AF005
S3151780446089FB012819D1A37F04F140028BF85D30AF
S31517804470E37F8BF85C30237F8BF85E30E3681BBA5B
S315178044801344CBF84C3023691BBACBF85830637F6B
S31517804490032B8BF85F3002D103E069480DE0182BA8
S315178044A00ED1684A0DAB0321A2F160000AF094FC85
S315178044B0002810DA02300ED0634809F049FAA1E0D5
S315178044C0DBF844302BB1DBF818301BBACBF86030E9
S315178044D001E05E48F1E79AF85D204D4B0E2A04D12C
S315178044E01A6D196E9A650A441A66CAF8484033E0F7
S315178044F00520FEF70DF8A37F022B20D104F1400388
S31517804500CAF85030E3681BBACAF8543007E0042B50
S3151780451018D14F4B002120461A1F0AF0F6F9DFF8FB
S315178045203CB14022214658461CF005FB0620012344
S315178045304BF8044CCAF84430FDF7EAFF87E7E6D80C
S31517804540012B00E00E2BD9D0079B4248196809F03A
S3151780455011FA6FF004006CE772071CD52C4A92F893
S315178045605D100E2900F2138144F21403CB4003F039
S31517804570010383F00101002B00F0098192F85E3068
S31517804580052B41D1424639460998FFF703FE002885
S3151780459040F02681074616F0080A61D1F00600F129
S315178045A0B280B3060FD505F19004E96E20460AF05E
S315178045B051FC05F1700205F16C0120460AF074FC76
S315178045C0002840F00D8195F85E0000F06FFA0446DA
S315178045D0002840F0AF8016F4F86F00F0AB80BAF180
S315178045E0000F01D0FDF726FC95F85E000AF018FA41
S315178045F095F85E200146184809F0BCF96FF0070058
S31517804600FDF786FF0120EBE00E2B40F0C280B9E75D
S315178046104CBC84174D8382175483821727051956E6
S31517804620BD7F8217D27F8217E77F82170580821711
S315178046301380821786838217C6838217E983821728
S3151780464009848217ACBC84172C84821756848217E8
S31517804650A0BC8417A58382171385821750BC84172D
S31517804660FFF742FEAB6CD5F858B00DAA0A93EB6CE0
S3151780467059460B932B6D069395F85C30089395F8EE
S315178046805D3004924FF4000203926A6DCDF800B044
S315178046900292069A019282460898FFF7B1FD044660
S315178046A030B16FF00500FDF733FFA31C54D175E7C2
S315178046B00D995846CBEB01018900FBF76DFF072053
S315178046C0FDF726FF089B0D9A13B9069B5B4562D0AB
S315178046D00B9B5B455FD90A9B93425CD26B6C43B14C
S315178046E095F82230042B7FF459AF3F4809F030F9FB
S315178046F054E73E484FF0FF3409F02AF96FF07300FC
S31517804700FDF706FF28E0696E05F17803AA6E05F1B5
S315178047109000009305F17403521A0AF0F9FA0028EB
S315178047205ED1696F324808F0A5FDA96F314808F048
S31517804730A1FD36E7710635D432063BD4F30542D44C
S3151780474016F480600CD000942B464FF48062414655
S31517804750384600F08EF90446BAF1000F06D003E00A
S31517804760BAF1000F3CD00446FDF764FBE01C04D178
S315178047706FF00600FDF7CCFE07E0611C05D14346B6
S315178047803A4609990798FDF737FC204628E000270F
S3151780479001E70F46FFE6A96D05F19000521A1BF047
S315178047A09BF9FBE62B46424639464020A04783466F
S315178047B090B9C1E72B46424639468020A0478346A3
S315178047C00028BBD008E02B46424639464FF4807006
S315178047D0A04783460028B3D0074809F0B9F858464A
S315178047E00EB0BDE8F08D00BF7A848217B484821725
S315178047F0FB84821708858217418582172DE9F04138
S31517804800161F002504460F469846BD420FDA002D1F
S31517804810C4BF84F80080013456F8041F013520463A
S315178048201CF084F830681CF0E1F80444EDE7BDE825
S31517804830F0810000B0F5806F10B50CD11C6E07485B
S31517804840214609F097F80F20FDF762FED9F8000088
S31517804850A047012010BD002010BD00BF5B858217C1
S31517804860B0F5806FF8B50C4617461D4623D1134809
S3151780487008F022FEA0B1102200211CF0ADFD002CFD
S31517804880064605DD0A233A462146FFF7B7FF07E0B6
S315178048900B4808F011FE014610B130461CF046F859
S315178048A02C6E0848214609F065F80F20FDF730FE73
S315178048B0A0470120F8BD0020F8BD00BF9485821758
S315178048C0517682179D85821770B50D460A4816460A
S315178048D01C4608F0F1FD40B108491CF05FF820B975
S315178048E0616D074808F0C6FC03E0236E31462846FB
S315178048F09847002070BD00BF2E808217D7858217F4
S31517804900DA858217B0F5806F2DE9F7458846924686
S315178049101F463FD193F82230042B01D0002609E099
S315178049203E6801AB6A460121304609F0EEFF019BCE
S31517804930002BF3D0B8F1000F15DD002425465AF861
S31517804940250001351CF052F8A84500F101000444F2
S31517804950F5D1204609F016FB2023524641460446D8
S31517804960FFF74CFF06E00D4808F0A6FD0C4C002813
S3151780497018BF04463D6E0B48294608F0FBFF0F20EB
S31517804980FDF7C6FD2346064A3146D9F80000A847E3
S31517804990012000E0002003B0BDE8F085517682172C
S315178049A0E31A8317E38582177FB50446036F00F1F1
S315178049B06C06C16E00F19005039371B328460AF011
S315178049C049FA314603AA28460AF06EFA01460028A4
S315178049D034D11B4AE06E1AF0D8FD031E01DA023372
S315178049E013D1184808F068FD0646B0B1E56E1BF07E
S315178049F0FDFF0123134A0193134918443346009048
S31517804A00284601F0BDFD002807DA1AF05FFE0F4928
S31517804A1002460F4808F0AEFF10E02046FDF77CF9F6
S31517804A200F20FDF775FDE26E216E0A4808F0A2FF8A
S31517804A302046FDF789F9084808F08AFF04B070BD4B
S31517804A402D868217517682172C868217886782174A
S31517804A50348682174786821783868217B0F5806FCA
S31517804A6008B504D11846FFF79FFF012008BD00201F
S31517804A7008BDF8B506460F4614461D46FCF70EFCCC
S31517804A802B4631463A462046069EB04795F85D3006
S31517804A90012B09D0B4F5007F06D06FF00800FDF71B
S31517804AA037FD4FF0FF30F8BD0020F8BD014B53F8A6
S31517804AB0200070473048821737B5074D074C8DE869
S31517804AC00C000B46641B064902462846A410614310
S31517804AD00BF076F803B030BD00B0841734B884175E
S31517804AE0B76DDBB608B50649064808F043FF064892
S31517804AF008F02EFF054808F02BFF002008BD00BFE1
S31517804B008D1D831732878217378782177E8782177D
S31517804B102DE9F0418846054638B32C2128461BF0E7
S31517804B2059FF064690B928461BF060FF04460028B1
S31517804B3041D0013009F026FA074618B96FF00B00F5
S31517804B40BDE8F08129461BF0F1FE11E0441B37D0F2
S31517804B50601C09F017FA07460028EFD02246294627
S31517804B601BF0ECFE00233B5502E00120BDE8F081E7
S31517804B703A2138461BF02EFF044628B10023601CC5
S31517804B8023701BF0B9FE044638461BF0B5FE054662
S31517804B901BF02CFF30B121462846C047044608B182
S31517804BA0384608E03846751C09F036F9002EB4D118
S31517804BB03046BDE8F08109F02FF92046BDE8F0812F
S31517804BC02046751C09F028F9A7E700002DE9F84556
S31517804BD007460D461646002A3FD0002841D00B7847
S31517804BE043B1002429461BF0CDFF034618B1013087
S31517804BF01C46F7E73C466CB328461BF0F7FE234660
S31517804C0013F8012D202AFBD00138204410F8013FD4
S31517804C10202BFBD0BC4201D02C2A04D13A2B23D08F
S31517804C202C2B21D003B32B78002BE3D04FF0000A1F
S31517804C30384629461BF0A6FF804648B128461BF002
S31517804C40D5FE4044844203D308F10100C246F0E7FB
S31517804C505446D0E70220BDE8F8854FF0FF30BDE80F
S31517804C60F8850120BDE8F88528461BF0BFFE20444D
S31517804C7010F8013B202BFBD03A2B17D1044623780B
S31517804C80621C202B01D11446F9E70B4920461BF0ED
S31517804C90E2FE20B920461BF0A9FE054600E0051B5B
S31517804CA02A46214630461BF009FF00E000250020E2
S31517804CB07055BDE8F88500BF13718217002383608E
S31517804CC0184670472DE9F84580460B4E0B4CA41BAA
S31517804CD0E41068B10025B24606E05AF8351040460A
S31517804CE01BF05CFE28B10135A54206EBC507F4DB40
S31517804CF000273846BDE8F885C4B88417F4B88417F2
S31517804D0038B50D46074C084908481BF031FC214633
S31517804D100748FFF7FDFE21462846FFF7F9FE0020D4
S31517804D2038BD00BF354D8017BD4C80176438831743
S31517804D30C787821710B58AB0114A002307930C4686
S31517804D40039300930AAB029205AA0690019213E980
S31517804D500F001BF073F8059B73B10CB9002209E09D
S31517804D6020461BF043FE0028F8D02046FFF7AAFFFF
S31517804D7010B14268059B9A6000200AB010BD00BF2B
S31517804D80643883172DE9F0410024DFF86C80C0B0B2
S31517804D9006680546FC22214601A800941BF06BFE87
S31517804DA0D8F80030114F2BB1114808F085FBC8F899
S31517804DB000403860386830B96A4631460D48FFF783
S31517804DC005FF80B905E06A463146FFF7FFFE0028E2
S31517804DD0F2D168461BF00AFE28B16846FFF772FFC4
S31517804DE008B14368AB6040B0BDE8F0817CBD8417DD
S31517804DF04C888217C78782170C27831730B538B127
S31517804E000C78302C04D14C7804F0DF04582C12D04F
S31517804E100A4C0B44994205D00D78655D20B115F083
S31517804E20440F04D12AB930BD15F0040FF9E70131C3
S31517804E30F0E7116030BD0231EAE700BF0E688217CE
S31517804E400023C3601846704738B50D46074C084986
S31517804E5008481BF08DFB21460748FFF759FE214668
S31517804E602846FFF755FE002038BD00BFE54E801750
S31517804E70414E8017643883175788821770B5054651
S31517804E801BF0B4FD68B1074E297830461BF0A2FD9A
S31517804E90044608B1801B70BD2978034808F06AFD5F
S31517804EA0204670BD2B7182176388821770B50546A9
S31517804EB01BF09CFD01280ED9084E697830461BF0E9
S31517804EC089FD044608B1801B70BD6978044808F0CF
S31517804ED051FD204670BD002070BD00BF2671821718
S31517804EE09788821770B58AB0154A002307930C46A0
S31517804EF0039300930AAB029205AA0690019213E9CF
S31517804F000F001AF09BFF059BBBB11CB9059B0022AE
S31517804F10DA6012E020461BF069FD0028F6D020469D
S31517804F20059EFFF7ABFF00F007052046FFF7BEFF8C
S31517804F30044B53F820301D43F56000200AB070BD2E
S31517804F4064388317404E82171D4B2DE9F341002491
S31517804F501B780546DFF87C8006688DF80430D8F80C
S31517804F6000308DF805408DF80640164F2BB1164840
S31517804F7008F0A2FAC8F800403860386830B901AA34
S31517804F8031461248FFF722FEB8B905E001AA314625
S31517804F90FFF71CFE0028F2D101A81BF027FD60B190
S31517804FA001A8FFF76BFF00F0070401A8FFF77EFF44
S31517804FB0074B53F820301C43EC6002B0BDE8F081F4
S31517804FC0F665821780BD8417D4888217578882170B
S31517804FD0404E8217102783172DE9FF4D06460C463C
S31517804FE00193174612B1D0F804B000E09346744B7C
S31517804FF03568002C08BF1C46012F00F0A380F36884
S3151780500003F007030093013B052B00F29B80DFE833
S3151780501003F0030E2B44608A4FF0FF3303AA214611
S315178050200020FFF7EBFE039B93F800802DE04FF0EF
S31517805030FF3303AA21460120FFF7E0FE039B1A7868
S31517805040002A70D1A21C93427CD12378302B79D138
S3151780505094F8018008F0DF08B8F1580F4FF0FF3841
S3151780506018BF4FF0000861E0237803F0DF02592A52
S3151780507009D0542A07D0A3F13002012A03D903F0A5
S31517805080D703462B4FD194F8018018F1000818BF23
S315178050904FF00108C8F1000848E04FF00008A24613
S315178050A0032303AA51460020FFF7A8FE039B534507
S315178050B039D0B8F1030F1A7802D02E2A01D032E0F0
S315178050C08ABB08F1010803F1010AB8F1040FE7D189
S315178050D038E04FF0000AA046022303AA4146012072
S315178050E0FFF78CFE039B43451DD008F102029342BE
S315178050F009D198F80020302A05D198F8012002F0B6
S31517805100DF02582A0FD0BAF1050F1A7802D03A2A39
S3151780511001D008E03AB90AF1010A03F10108BAF198
S31517805120060FD9D10EE04FF0FF3802E0B8F1FF3FF6
S3151780513008D1009A2946234B23489B5C224608F0C0
S3151780514019FC38E0019B13F0020802D04FF00008D3
S3151780515031E0012F03D025D3022F09D02BE0F36836
S315178051601807F3D52946194808F004FCB84622E0F3
S31517805170F368990613D45A06E8D52846104C08F0D2
S3151780518046FA5946002818BF04461148224608F0A1
S31517805190F1FB214658461BF001FC0028D6D029463C
S315178051A00C4804E0F368DB06D0D50B48294608F08F
S315178051B0E1FB4FF00108404604B0BDE8F08D00BF13
S315178051C0E31A83172B718217DB8882171B8982173D
S315178051D058898217388982177089821708B508B94E
S315178051E0054803E013F082FA20B1044808F0B0FBB3
S315178051F04FF0FF3008BD00BF8D898217A0898217AF
S315178052004FF4C023002013607047002070470000BA
S31517805210034A0020C9F824200122C9F8282070479C
S31517805220186982172DE9F045ADF5005D8BB0FFF74C
S31517805230ECFF054612F0B2FA0746FFF7CFFFC0BB61
S315178052400DF1270626F01F06304608F093FA014619
S3151780525068BB01AA3846FFF7D3FF044648BB2A46E0
S3151780526019491A4808F086FBFD6E0198C5F10008A2
S3151780527028442946013800EA08001EF0E0EF29463F
S31517805280824605F5FF501F3000EA08001EF0D6EF5C
S31517805290D7F830710546FFF7B8FF33462A46514689
S315178052A0B847854207D00A4808F052FB01E0044602
S315178052B004E0012402E0074808F04AFB20460DF572
S315178052C0005D0BB0BDE8F085E31A8317B1898217A5
S315178052D0650283177A1983172DE9F04DADF5005DB1
S315178052E08AB0FFF792FF12F059FA0646FFF776FF54
S315178052F0014678BB01AA3046FFF782FF50BB019C57
S31517805300FFF783FFD6F868A00DF1270525F01F054F
S31517805310CAF1000B514680460AF5FF501F3000EA46
S315178053200B001EF08CEF5146074604EB0A00013836
S3151780533000EA0B001EF082EFD6F82C412B463A4630
S3151780534001464046A047874204D10121284608F0E6
S31517805350C7F902E0002008F06FF90DF5005D0AB075
S31517805360BDE8F08D38B504461A4808F03BF905466E
S31517805370204609F0FFFB012823D12268164B9A4253
S3151780538001D016481EE0204609F090FA08B914484D
S3151780539018E02DB1204609F09EFA08B9114811E098
S315178053A0A37F062B01D010480CE0216C04F1400036
S315178053B009BA09B90D4805E050F8042B002AFBD124
S315178053C004E00B4808F0C4FA012038BDBDE8384020
S315178053D009F0C5BF4D83821727051956CA898217C3
S315178053E0DC898217EC898217FA8982170A8A8217CB
S315178053F0188A8217012A10B506DD102200215868EF
S315178054001BF0EAFF044601E04FF09054214604480A
S3151780541008F0B0FA20460021BDE81040FFF7A2BF7A
S31517805420418A82170A460146014808F0A3BA00BF87
S315178054307D8A821730B585B0D9F800403448216CFB
S31517805440FFF7F0FF616C3348FFF7ECFF0021324816
S31517805450FFF7E8FFA16C3148FFF7E4FFE16C3048AE
S315178054600024FFF7DFFF20461CF07AFE0546E0B1E1
S31517805470024621462B4808F07DFA2CB122462A4946
S3151780548001A81CF0A4F803E0284901A81BF04EFADE
S3151780549001A8013408F010F8254A01A9002818BF79
S315178054A00246244808F066FADDE71DF093F80146B0
S315178054B0214808F05FFA214807F0FEFF0146204889
S315178054C008F058FA1F48D9F8081008F053FA1E48FA
S315178054D0D9F8F010FFF7A6FF1C48D9F83010FFF758
S315178054E0A1FF1B48D9F84410FFF79CFF1948D9F834
S315178054F03C10FFF797FF1848D9F84010FFF792FF2F
S315178055001648D9F81C10FFF78DFF284605B030BD11
